:10000000000008308A000028FF00030E8301A100D1
:100010000A08A0008A010408A2007708A300780853
:10002000A4007908A5007A08A600831383128C30F7
:100030008400801E1D288C1A34288C308400801C7B
:1000400023288C183728220884002308F700240866
:10005000F8002508F9002608FA0020088A00210E79
:100060008300FF0E7F0E09008A110A12942A8A115A
:100070000A12582A0A108A100A11413E03188A0AE5
:1000800082000034C134813440340134C0348034BF
:1000900041340134C034803441340034C1348134BB
:1000A00040340134C034803441340034C1348134AC
:1000B00040340034C134813440340134C03480349D
:1000C00041340134C034803441340034C13481348B
:1000D00040340034C134813440340134C03480347D
:1000E00041340034C134813440340134C03480346C
:1000F00041340134C034803441340034C13481345B
:1001000040340134C034803441340034C13481344B
:1001100040340034C134813440340134C03480343C
:1001200041340034C134813440340134C03480342B
:1001300041340134C034803441340034C13481341A
:1001400040340034C134813440340134C03480340C
:1001500041340134C034803441340034C1348134FA
:1001600040340134C034803441340034C1348134EB
:1001700040340034C134813440340134C0348034DC
:1001800041340134C034803441340034C1348134CA
:1001900040340034C134813440340134C0348034BC
:1001A00041340034C134813440340134C0348034AB
:1001B00041340134C034803441340034C13481349A
:1001C00040340034C134813440340134C03480348C
:1001D00041340134C034803441340034C13481347A
:1001E00040340134C034803441340034C13481346B
:1001F00040340034C134813440340134C03480345C
:1002000041340034C134813440340134C03480344A
:1002100041340134C034803441340034C134813439
:1002200040340134C034803441340034C13481342A
:1002300040340034C134813440340134C03480341B
:1002400041340134C034803441340034C134813409
:1002500040340034C134813440340134C0348034FB
:1002600041340034C134813440340134C0348034EA
:1002700041340134C034803441340034C1348134D9
:1002800040340A148A100A11483E03188A0A820070
:100290000034C034C1340134C33403340234C234B2
:1002A000C63406340734C7340534C534C434043482
:1002B000CC340C340D34CD340F34CF34CE340E3432
:1002C0000A34CA34CB340B34C93409340834C83442
:1002D000D83418341934D9341B34DB34DA341A34B2
:1002E0001E34DE34DF341F34DD341D341C34DC3482
:1002F0001434D434D5341534D73417341634D634B2
:10030000D23412341334D3341134D134D0341034C1
:10031000F03430343134F1343334F334F2343234B1
:100320003634F634F7343734F53435343434F43481
:100330003C34FC34FD343D34FF343F343E34FE3431
:10034000FA343A343B34FB343934F934F834383441
:100350002834E834E9342934EB342B342A34EA34B1
:10036000EE342E342F34EF342D34ED34EC342C3481
:10037000E43424342534E5342734E734E6342634B1
:100380002234E234E3342334E13421342034E034C1
:10039000A03460346134A1346334A334A2346234B1
:1003A0006634A634A7346734A53465346434A43481
:1003B0006C34AC34AD346D34AF346F346E34AE3431
:1003C000AA346A346B34AB346934A934A834683441
:1003D0007834B834B9347934BB347B347A34BA34B1
:1003E000BE347E347F34BF347D34BD34BC347C3481
:1003F000B43474347534B5347734B734B6347634B1
:100400007234B234B3347334B13471347034B034C0
:1004100050349034913451349334533452349234B0
:100420009634563457349734553495349434543480
:100430009C345C345D349D345F349F349E345E3430
:100440005A349A349B345B34993459345834983440
:1004500088344834493489344B348B348A344A34B0
:100460004E348E348F344F348D344D344C348C3480
:1004700044348434853445348734473446348634B0
:1004800082344234433483344134813480344034C0
:1004900083168C10831203179A080319562A031324
:1004A00091018C1083168C14831203170313080018
:1004B0003108023C031D6A2AB208031D6A2AB308E8
:1004C000031D6A2A30186A2A02308316A102831299
:1004D00030146B2A3010FF30B300B200B1010317A3
:1004E0009A01031348228C108A110A1223288C1EA9
:1004F000772A1808AF001A08F800AF1C812A1812D2
:1005000018160800330803171A069B001B0803136C
:100510003A20F80032087806B30003171B080313CB
:100520004121F800B20008007722780803179900EB
:1005300003133018D82AB108031DAD2AFF30B300C9
:10054000B2000317190883160313A0008312B10A1F
:100550008316A101A301CD2A8312310BB72A0317F9
:10056000190883160313A2008312B10ACE2A310898
:10057000023C031DCE2A831621083F3C0318C22AE1
:100580003F30A100A4302107840083138312031796
:100590001908800083160313A10A83120317190890
:1005A0009A0003138222013003179A000313482292
:1005B0008C128A110A1223288C1EE02A7722DC2A48
:1005C0008C1283168C16831208000010DC22203057
:1005D000F80006389200F93083169200C03083127A
:1005E0008B048A150A122328831681131F149F1463
:1005F0001F159F11FF30860000308800880183128C
:1006000088018A150A122628803003178D008C0174
:1006100083168C130C15831203130B08F7008B132E
:100620008316031755308D00AA308D008C148C185A
:10063000172B0C117708831203138B0481300317D7
:100640008D008C0183168C130C15831203130B0879
:10065000F7008B138316031755308D00AA308D00D9
:100660008C148C18312B0C117708831203138B0414
:10067000B8010230B700B90108003018432B003030
:10068000F8004E2B4B2B8316A21F4A2B2408A300E5
:100690000130A100831230100130F8008A150A12CF
:1006A00031288316EE016E080F3C031C8F2B6D085A
:1006B000FA006C08F9006E08F7000319642B0310A8
:1006C000FA0CF90CF70B5F2B7908791C7D2BFA01DA
:1006D0000130F9006E08F7000319732B0310F90DB0
:1006E000FA0DF70B6E2B7908FF3AF700FF30FA0688
:1006F0007708EC057A08ED058D2BFA010130F90039
:100700006E08F7000319892B0310F90DFA0DF70B8A
:10071000842B7908EC047A08ED04EE0A532B6C085C
:10072000F8006D08F900831208000830F800000096
:100730008711B41134088316870000008312031751
:10074000900D03130712031CAB2B341634088316C9
:100750008700AF2B83123412340883168700000001
:100760008312B4153408831687008312871DB62BB5
:10077000F80B972B00008711B411340883168700FB
:10078000000083123416340883168700000000002E
:100790008312B4153408831687008312871DCE2B6D
:1007A000F8010000071A78148711B4113408831671
:1007B00087008312071234123408831687008312CD
:1007C00008000830031791007708920003133416CD
:1007D00034088316870000008312B415340883168A
:1007E00087008312871DF22B071A0314071E0310BC
:1007F000F80D0000B41134088316870083128711A6
:100800000317910BE62B0313341634088316870065
:10081000000083120712031712080319162C031382
:100820003412340883168700831203170000031361
:10083000B4153408831687008312871D1D2C000011
:100840008711B41134088316870000008312071241
:100850003412340883168700831208000317110826
:1008600092000310920C78309205120CF700F70CEE
:100870003F30F70577081207930011080F39130767
:10088000F800031308000317140803130C1E462C6A
:100890009900A7018B1BA7178B13031714089A0045
:1008A00003138222A71B8B172230F700F70B562C5D
:1008B00000000800FF30B300B200301083168C1225
:1008C0007930F700F70B622C83120317120894009B
:1008D000031343240317130894000313432408004D
:1008E0003308031793000313320803179200130809
:1008F00094000313432403171208940003134324A2
:100900008316981C812C7930F700F70B852C831205
:10091000DC22FF30B300B20008008316ED016A0844
:100920006D020318BA2C6908831203178D00831611
:100930008C130C1483120C0883160313EB00E90AC2
:100940006908831203178D0083168C130C1483120D
:100950000C0883160313EC00E90A03106D0D3A3EF0
:1009600084008313840A6B08800084036C08800071
:10097000ED0A8F2C83128A150A12A12C8316ED0121
:100980006A086D020318F12C80306907EE006E08CA
:10099000831203178D0083168C130C1483120C081A
:1009A00083160313EB00E90A80306907EE006E0836
:1009B000831203178D0083168C130C1483120C08FA
:1009C00083160313EC00E90A03106D0D3A3E840010
:1009D0008313840A6B08800084036C088000ED0A8E
:1009E000C02C83128A150A12082D03171108F8016A
:1009F00010020318FE2C1008F7000A2DF70108302A
:100A00009200900DF70D110877020318F700F80D0A
:100A1000920B012D0313080083166E08831203172F
:100A200090000A3091000313F524780E8316EF002E
:100A3000F030EF056E088312031790000A30910022
:100A40000313F524770883166F07F8008312080054
:100A5000341634088316870000008312B415340856
:100A6000831687000000831207123412340883169D
:100A70008700000083128711B411340883168700A1
:100A8000D0308312031790000313952303179001AE
:100A90000313952303179001031395238316690805
:100AA000EE0083120C2578088316EE0083120317DC
:100AB00090000313952383166A08EE0083120C2519
:100AC00078088316EE008312031790000313952312
:100AD0000230031790000313952383166B08EE0072
:100AE00083120C2578088316EE00831203179000FA
:100AF0000313952383166C08EE0083120C257808E7
:100B00008316EE00831203179000031395238316B8
:100B10006D08EE0083120C2578088316EE00831210
:100B200003179000031395233412340883168700AB
:100B300000008312B4153408831687008312871DC2
:100B40009F2D0000A32D0000341634088316870063
:0A0B5000000083128A150A12952D89
:10100000840183131F3083051430AD00AF01193004
:1010100083169900A6309800903083129800301003
:10102000B101FF30B400B601B501B8010230B7001C
:10103000B90183161F149F141F159F1107309C00C0
:101040008A118312E52A8A158A11F42A8A158316D1
:10105000E601E501E7018A11831204238A158A114A
:101060003D2B8A15F808031D332C8316E401640810
:10107000073C031C282CFF308600831206088316C9
:10108000E900EB016908EA006B08ED006A08EC0072
:101090008A11831251238A1579088316EB00780888
:1010A000EA00EC00F7006408F80003195B2803105D
:1010B000F70CF80B5728003077180130EC00670860
:1010C000F7006408F800031969280310F70CF80BFF
:1010D00065280030771801306C020319DF2BFF30D0
:1010E0008600831206088316E900EB016908EA000E
:1010F0006B08ED006A08EC008A11831251238A15EF
:1011000079088316EB007808EA00E7006708F70023
:101110006408F800031990280310F70CF80B8C28CA
:101120006810771C681483123416340883168700FD
:1011300000008312B4153408831687000000831260
:1011400007123412340883168700000083128711B7
:10115000B411340883168700D0308312031790002F
:101160008A11031395238A15031790018A1103131B
:1011700095238A15341634088316870000008312DD
:10118000B41534088316870000008312871DC62813
:101190000712341234088316870000008312871167
:1011A000B411340883168700D130831203179000DE
:1011B0008A11031395238A150130F7008A11E12360
:1011C0008A1578087F398316EA0083120317910085
:1011D0008A1103132E248A157808A8000130F7001D
:1011E0008A11E1238A1578087F398316EA00831271
:1011F000031791008A1103132E248A157808A90079
:101200000130F7008A11E1238A1578083F398316E7
:10121000EA008312031791008A1103132E248A1502
:101220007808AA000130F7008A11E1238A157808AE
:1012300007398316EA008312031791008A110313FA
:101240002E248A1578088316E9000130F7008A11E8
:101250008312E1238A1578083F398316EA00831246
:10126000031791008A1103132E248A157808AB0006
:101270000130F7008A11E1238A1578081F39831697
:10128000EA008312031791008A1103132E248A1592
:101290007808AC000130F7008A11E1238A1578083C
:1012A0008316EA008312031791008A1103132E2478
:1012B0008A157808AE0034123408831687000000BF
:1012C0008312B4153408831687008312871D66299C
:1012D00000006A29000034163408831687000000D5
:1012E0008030831237078316E9008312380883168B
:1012F000EA000318EA0A6908831203178D008316AF
:1013000003136408831203178C0083168C130C15C7
:10131000831203130B08F7008B1383160317553042
:101320008D00AA308D008C148C1894290C1177082C
:10133000831203138B04B70A0319B80A80303707E6
:101340008316E900831238088316EA000318EA0AB4
:101350006908831203178D000313290803178C00F3
:1013600083168C130C15831203130B08F7008B13D1
:101370008316031755308D00AA308D008C148C18FD
:10138000BF290C117708831203138B04B70A0319C2
:10139000B80A803037078316E900831238088316AD
:1013A000EA000318EA0A6908831203178D00031381
:1013B0002A0803178C0083168C130C158312031351
:1013C0000B08F7008B138316031755308D00AA30D6
:1013D0008D008C148C18EA290C11770883120313E2
:1013E0008B04B70A0319B80A803037078316E9005F
:1013F000831238088316EA000318EA0A6908831280
:1014000003178D0003132B0803178C0083168C130E
:101410000C15831203130B08F7008B1383160317A5
:1014200055308D00AA308D008C148C18152A0C11A3
:101430007708831203138B04B70A0319B80A8030A4
:1014400037078316E900831238088316EA00031869
:10145000EA0A6908831203178D0003132C08031787
:101460008C0083168C130C15831203130B08F700E2
:101470008B138316031755308D00AA308D008C1402
:101480008C18402A0C117708831203138B04B70AB7
:101490000319B80A803037078316E9008312380829
:1014A0008316EA000318EA0A6908831203178D00FD
:1014B00003132D0803178C0083168C130C1583124D
:1014C00003130B08F7008B138316031755308D0099
:1014D000AA308D008C148C186B2A0C11770883129B
:1014E00003138B04B70A0319B80A80303707831631
:1014F000E900831238088316EA000318EA0A69082B
:10150000831203178D0003132E0803178C00831614
:101510008C130C15831203130B08F7008B1383161F
:10152000031755308D00AA308D008C148C18962A24
:101530000C117708831203138B04B70A0319B80A36
:10154000803037078316E900831238088316EA00D3
:101550000318EA0A003068180130EB0069088312AA
:1015600003178D00831603136B08831203178C0077
:1015700083168C130C15831203130B08F7008B13BF
:101580008316031755308D00AA308D008C148C18EB
:10159000C72A0C117708831203138B04B70A0319A7
:1015A000B80A341634088316870000008312B41575
:1015B000340883168700000083120712341234089F
:1015C00083168700000083128711B4113408831634
:1015D0008700D0308312031790008A1103139523DC
:1015E0008A15031790018A11031395238A1534165F
:1015F00034088316870000008312B415340883165C
:10160000870000008312871D032B07123412340851
:1016100083168700000083128711B41134088316E3
:101620008700D1308312031790008A11031395238A
:101630008A150130F7008A11E1238A1578087F396D
:101640008316EA008312031791008A1103132E24D4
:101650008A157808A8000130F7008A11E1238A155D
:1016600078087F398316EA008312031791008A11E4
:1016700003132E248A157808A9000130F7008A1177
:10168000E1238A1578083F398316EA00831203178D
:1016900091008A1103132E248A157808AA000130BC
:1016A000F7008A11E1238A15780807398316EA00C2
:1016B0008312031791008A1103132E248A157808C8
:1016C0008316E9000130F7008A118312E1238A159D
:1016D00078083F398316EA008312031791008A11B4
:1016E00003132E248A157808AB000130F7008A1105
:1016F000E1238A1578081F398316EA00831203173D
:1017000091008A1103132E248A157808AC00013049
:10171000F7008A11E1238A1578088316EA008312FC
:10172000031791008A1103132E248A157808AE003E
:10173000341234088316870000008312B41534086D
:10174000831687008312871DA32B0000A72B0000A0
:10175000341634088316870000008312B90A390D45
:10176000F700F70DF70DF830F7057708FF3E370261
:10177000031DC12BB808031DC12BB8010230B700EF
:10178000B901813003178D000313390803178C004A
:1017900083168C130C15831203130B08F7008B139D
:1017A0008316031755308D00AA308D008C148C18C9
:1017B000D72B0C117708831203138B048316FF3089
:1017C0008600831206088316E900EB016908EA0027
:1017D0006B08ED006A08EC008A11831251238A1508
:1017E00079088316EB007808EA00EC00F70064083B
:1017F000F8000319FF2B0310F70CF80BFB2B771CD9
:10180000262C0310640DE9006908831203178D006C
:1018100083168C130C1483120C0883160313E9002F
:101820000310640D013EEA006A08831203178D005D
:1018300083168C130C1483120C0883160313EA000E
:101840006908FA006A08E5047A08E604E40A372819
:101850006508E90088016908831288008316E6019B
:10186000E50183122F281030F700F70B352C00000C
:1018700083162008033C0319402CA008031D472EA3
:101880002208053A831203194F2C063A0319992CA2
:10189000073A0319002D143A0319672D1E2E8A11D9
:1018A00004238A158316EA012608E9006908EA007C
:1018B000E9010330EB00ED012508EC006A08EF00B8
:1018C0006908EE006B08831203179200053093003D
:1018D0008A1103135A248A1583166D08831203177D
:1018E000900094008A11031343248A1583166C0810
:1018F00083120317900094008A11031343248A155E
:1019000083166F0883120317900094008A11031343
:1019100043248A1583166E088312031790009400DF
:101920008A11031343248A158A1170248A15000032
:10193000462E83162508E9002708EA008A1183123B
:101940008D2C8A1503108316270DE9000330EA0059
:101950006908EB00ED013A30EC006A0883120317C6
:101960009200033093008A1103135A248A158316B8
:101970006B088312031794008A11031343248A15FA
:101980008316EE016B086E020318FA2C6D08FA003C
:101990006C08840083136D188317840A000883126F
:1019A000031791008403000890001108920094002E
:1019B0008A11031343248A1583166D08FA006C08F4
:1019C000840083136D188317840A00088312031799
:1019D0009100840300089000920094008A11031380
:1019E00043248A1502308316EC070318ED0A0230EF
:1019F000EE07C22C8A11831270248A150000462E2D
:101A000083162508E9002708EA008A118312BE2CF4
:101A10008A1503108316270DE9000330EA006908D0
:101A2000EB00ED013A30EC006A08831203179200D4
:101A3000043093008A1103135A248A1583166B0805
:101A40008312031794008A11031343248A15831603
:101A5000EE016B086E020318612D6D08FA006C0828
:101A6000840083136D188317840A000883120317F8
:101A700091008403000890001108920094008A11DC
:101A8000031343248A1583166D08FA006C0884003A
:101A900083136D188317840A0008831203179100BB
:101AA000840300089000920094008A1103134324D9
:101AB0008A1502308316EC070318ED0A0230EE0790
:101AC000292D8A11831270248A150000462E831650
:101AD00029088312A90083162A088312AA008316F4
:101AE0002B088312AB0083162C088312AC008316DC
:101AF0002D088312AD0083162E088312AE0029082C
:101B00008316E90083122A088316EA0083122B0841
:101B10008316EB0083122C088316EC0083122E0828
:101B20008316ED008A118312282D8A15031083165F
:101B3000250D8312B500B6010318B60A0B308316C3
:101B4000E400280864020318D12DA430640784003F
:101B500083130008E9008312350803178D008316EC
:101B600003136908831203178C0083168C130C155A
:101B7000831203130B08F7008B13831603175530DA
:101B80008D00AA308D008C148C18C42D0C11770890
:101B9000831203138B04B50A0319B60A8316E40AE9
:101BA000A12D2408EA002508E9002608EC002708F2
:101BB000EB000330ED006A08EF006908EE006C08E6
:101BC000831203179100831603136B088312031704
:101BD0009000831603136D088312031792001030D0
:101BE00093008A1103135A248A1583166F088312EF
:101BF0000317920094008A11031343248A15831655
:101C00006E0883120317920094008A110313432471
:101C10008A1503171108920094008A1103134324B4
:101C20008A1503171008920094008A1103134324A5
:101C30008A158A1170248A150000462E03308316F7
:101C4000E900EB012208EA000130EC006A08803864
:101C5000ED006B08EE0069088312031792008316EB
:101C600003136D088312031793008A1103135A2478
:101C70008A1583166C088312031794008A110313C4
:101C800043248A158A1170248A1500008316831252
:041C90002F28492E82
:02400E003B373E
:00000001FF
;PIC16F877A
;CRC=89C8  CREATED="11-ene-14 16:17"
